:100000000C9434000C9449000C9449000C94490061
:100010000C9449000C9449000C9449000C9449003C
:100020000C9449000C9449000C9449000C9449002C
:100030000C9449000C9449000C9449000C9449001C
:100040000C9449000C9449000C9449000C9449000C
:100050000C9449000C9449000C9449000C944900FC
:100060000C9449000C94490011241FBECFEFD8E036
:10007000DEBFCDBF11E0A0E0B1E0ECE0F7E002C0F0
:1000800005900D92A634B107D9F70E9494000C9404
:1000900084030C9400000F931F93162F14B89FEF46
:1000A0009AB92FED3FEF829F002D11240C5950E09B
:1000B00060E070E0CB01BA0120EA36E841E050E0B0
:1000C0000E946503E0E020E030E040E050E020C026
:1000D000EF5FE43608F0E0E0E01790F4113049F00B
:1000E000113028F0123039F0133071F406C05E9AE6
:1000F00005C05D9A5B9A5E9A5B9A5D9A2B9A04C0E2
:100100005E982B985D985B982F5F3F4F4F4F5F4FE6
:100110002617370748075907DCF25E982B985D9839
:100120005B981F910F9108952F923F924F925F928B
:100130006F927F928F929F92AF92BF92CF92DF92F7
:10014000EF92FF920F931F93DF93CF93CDB7DEB75C
:10015000C356D0400FB6F894DEBF0FBECDBF83B1FB
:10016000282F30E022703070A0963FAF2EAFA097BE
:1001700083B1282E332430E22322332483B1682E26
:10018000772480E168227724519A2198299A25982A
:100190002D9A24982C9AFE01799680E4DF011D9215
:1001A0008A95E9F7A7E0B1E088E00D9001928150CF
:1001B000E1F7DE019196E0E1F1E088E001900D9237
:1001C0008150E1F7DE019996E9E1F1E088E00190E4
:1001D0000D928150E1F7DE01D996E2E2F1E088E08C
:1001E00001900D928150E1F7DE01AF5BBF4FEBE272
:1001F000F1E088E001900D928150E1F7DE01A75B0C
:10020000BF4FE4E3F1E088E001900D928150E1F707
:10021000DE01AF5ABF4FEDE3F1E088E001900D92AF
:100220008150E1F7FE013196A496FFAFEEAFA4979F
:1002300088E111928A95E9F70E94F7028CE090E03C
:100240000E9448036E961FAE1EAE6E976C961FAE50
:100250001EAE6C976A961FAE6A9710E081E090E040
:100260000E944803CE0149960E943403CC24DD2429
:100270006A96FFAD6A974F2E5524C201880F991FC9
:10028000840D951D5C010894A11CB11CAA0CBB1C1B
:1002900021E030E02C0F3D1FA20EB31E4C01880C54
:1002A000991C820E931EC4010496A2969FAF8EAF36
:1002B000A297112399F683B190E082709070A09676
:1002C000AEADBFADA0978A179B0729F46E961FAEFF
:1002D0001EAE6E9711C0199906C0E1E0F0E06E966F
:1002E000FFAFEEAF6E9783B1282F30E022703070F1
:1002F000A0963FAF2EAFA09783B190E08072907030
:100300008215930529F46C961FAE1EAE6C970EC035
:100310001D9906C081E090E06C969FAF8EAF6C9700
:1003200083B1282E332490E22922332483B190E034
:10033000807190708615970509F44FC01C9947C0CD
:1003400081E090E00E944803C394A2E0CA1669F0DD
:10035000B3E0CB1691F0E1E0CE16C9F5D401DC9202
:1003600011961C92CE01C99616C0F501D082118259
:1003700080E090E00E945C0329C0A296AEADBFADC4
:10038000A297DC9211961C926A96BFAD6A97B33021
:1003900028F480E091E00E94340318C089819A819A
:1003A0000E945C038E010F5F1F4FEE24FF24F801B3
:1003B0008081628144810E944B000894E11CF11C01
:1003C0000A5F1F4F4E145F0494F711E0DD2483B1E0
:1003D000682E7724F0E16F2277246E962EAD3FAD24
:1003E0006E972130310579F5D110DA9481E090E0F3
:1003F0000E94480331E03C15B0F08C2D90E0880F4E
:10040000991F880F991F8D0D911D43E0880F991F2B
:100410004A95E1F7A9E1B0E0AC0FBD1F8A0F9B1F21
:100420000E94340310C0B2E0CB1629F48D2D90E069
:100430000E945C0308C06A96EFAD6A97EF5F6A9608
:10044000EFAF6A970BCF6C962EAD3FAD6C97213016
:10045000310509F050C031E03C1538F1CC2019F4D9
:1004600022E030E002C023E030E08D2D90E08217E2
:1004700093070CF4D39481E090E00E9448038C2D04
:1004800090E0880F991F880F991F8D0D911D23E013
:10049000880F991F2A95E1F7A9E1B0E0AC0FBD1FC5
:1004A0008A0F9B1F0E94340326C0B2E0CB1651F482
:1004B000D39481E090E00E9448038D2D90E00E944B
:1004C0005C0319C089819A810E945C038E010F5FD1
:1004D0001F4FEE24FF240BC0F8018081628144810C
:1004E0000E944B000894E11CF11C0A5F1F4F4E1440
:1004F0005F0494F711E088E893E10197F1F7D9CE12
:10050000219A249A259A579A0895219824982598F3
:10051000579808955C9A86E08A95F1F700C089B1F2
:10052000881F8827881F880F880F880F1D9984606F
:100530001C998260199981605C98089580FF0CC0B5
:10054000299A81FF0BC02C9A82FF0AC02D9A83FF43
:1005500009C05F9A0C948A022998F3CF2C98F4CFA3
:100560002D98F5CF5F98F6CFCF93DF935A980E94DE
:100570008502289A0E948A02C82F0E948A0290E16E
:10058000C99FE00111248C2B87FDF0CFDF91CF9123
:100590000895CF93C82F0E94B40228985A980E94B9
:1005A00080028C2F82958F700E949E028C2F8F70FC
:1005B0000E949E020E9485028FE0CF910C949E02C1
:1005C000CF93C82F0E94B40228985A9A0E948002A2
:1005D0008C2F82958F700E949E028C2F8F700E94AC
:1005E0009E020E9485028FE0CF910C949E02289873
:1005F0005A985C98529A209A549A0E9480022FE549
:100600008AEE90E0215080409040E1F700C0000069
:1006100083E00E949E028FE295E70197F1F700C008
:10062000000083E00E949E028FE097E20197F1F7BD
:1006300000C0000083E00E949E028FE097E20197D5
:10064000F1F700C0000082E00E949E020E94B40206
:1006500088E20E94C90288E00E94C90281E00E94EB
:10066000C90286E00C94C902CF93DF93EC01899113
:10067000811103C0DF91CF9108950E94E002F7CF6E
:1006800090E4699FB0011124862B80680C94C90204
:100690000C94C9028F708A3018F4805D0C94E002CB
:1006A000895CFCCFCF93C82F82958F700E944A033C
:1006B0008C2FCF910C944A03CF93C82F892F0E947F
:1006C00052038C2FCF910C945203629FD001739FE1
:1006D000F001829FE00DF11D649FE00DF11D929FDE
:1006E000F00D839FF00D749FF00D659FF00D99271D
:1006F000729FB00DE11DF91F639FB00DE11DF91F41
:0C070000BD01CF0111240895F894FFCF33
:10070C00616464592F4E00736C6F77202020200099
:10071C006D656420202020200066617374202020E9
:10072C0020006677202020202020007276202020B8
:10073C002020200063772020202020200063637776
:06074C0020202020200007
:00000001FF
