:100000000C9434000C9449000C9449000C94490061
:100010000C9449000C9449000C9449000C9449003C
:100020000C9449000C9449000C9449000C9449002C
:100030000C9449000C9449000C9449000C9449001C
:100040000C9449000C9449000C9449000C9449000C
:100050000C9449000C9449000C9449000C944900FC
:100060000C9449000C94490011241FBECFEFD8E036
:10007000DEBFCDBF12E0A0E0B1E0EEE3F5E102C0EB
:1000800005900D92AC33B107D9F70E941A030C9476
:100090009D0A0C940000813039F0813040F08230AC
:1000A00031F0833049F406C05D9A5E9808955D98FA
:1000B0005E9A08955D9A5E980895813051F081307E
:1000C00028F0823031F0833049F406C05B982B9AD7
:1000D00008955B9A2B9808955B982B9A0895AF9298
:1000E000BF92CF92DF92FF920F931F93CF93DF9334
:1000F000F62E14B89FEF9AB992E3499F600111243C
:10010000C4E0D0E0C81BD109CC0FDD1F00E010E037
:1001100082EEA82E84E0B82E19C0C801BE010E944C
:100120003F0A892B49F48F2D90E00E944B008F2DC0
:1001300090E00E945D0005C08BB18F798BB95B9810
:100140002B98C5010197F1F70F5F1F4F0C151D0587
:1001500024F38EEFF80E81E08F1520F08BB18866C6
:100160008BB92B9ADF91CF911F910F91FF90DF9068
:10017000CF90BF90AF90089582E090E063E070E090
:1001800041E150E00E946F00089581E090E063E05B
:1001900070E04FE050E00E946F00089582E090E030
:1001A00063E070E04BE150E00E946F00089581E051
:1001B00090E063E070E04CE050E00E946F00089532
:1001C00082E090E062E070E041E150E00E946F0068
:1001D000089581E090E062E070E04FE050E00E941E
:1001E0006F00089582E090E062E070E04BE150E043
:1001F0000E946F00089581E090E062E070E04CE0C2
:1002000050E00E946F00089581E090E063E070E0AC
:1002100047E050E00E946F00089581E090E062E0C6
:1002200070E047E050E00E946F00089581E090E0A8
:1002300061E070E04AE050E00E946F000E94F2002E
:1002400088EE93E024EF31E0F9013197F1F701975F
:10025000D9F70E94F20080E593EC24EF31E0F90138
:100260003197F1F70197D9F7089581E090E061E0C7
:1002700070E04EE150E00E946F000E94F20008958D
:1002800080E090E060E070E043E050E00E946F00AA
:10029000089580E090E060E070E045E050E00E946A
:1002A0006F00089581E090E060E070E042E050E08F
:1002B0000E946F00089526B130E021703070C901AE
:1002C000089526B130E022703070C901089526B13A
:1002D00030E024703070C901089526B130E02870F4
:1002E0003070C901089526B130E020713070C90125
:1002F00008951F93182F81E090E00E940F04812F32
:1003000063E00E94330A913041F0913018F092304E
:1003100059F406C080E091E005C085E091E002C09C
:1003200089E091E00E94FB031F9108951F93CF93F2
:10033000DF938EE091E00E94FB0380E061E00E9489
:10034000070483E191E00E94FB0380E197E224EF40
:1003500031E0F9013197F1F70197D9F781E090E0A9
:100360000E940F0480E091E00E94FB0314B883B167
:100370001EE7C4EFD1E084EF91E0FE013197F1F781
:100380000197D9F7199B05C01150812F90E00E9469
:1003900079011D9B05C01F5F812F90E00E947901AC
:1003A0001C990EC081E090E00E940F04812F63E051
:1003B0000E94330A892F8F5FDF91CF911F9108959B
:1003C00083B1D9CF1F93CF93DF938EE091E00E944A
:1003D000FB0380E061E00E94070489E191E00E9454
:1003E000FB0380E197E224EF31E0F9013197F1F767
:1003F0000197D9F781E090E00E940F0481E00E940C
:10040000110414B883B110E0C4EFD1E081E090E0B2
:100410000E940F04812F65E00E94330A892F8F5FAD
:100420000E94110484EF91E0FE013197F1F70197EA
:10043000D9F7199B08C084EF91E0FE013197F1F7DD
:100440000197D9F71F5F1D9B08C084EF91E0FE0163
:100450003197F1F70197D9F711501C990AC0812FF4
:1004600065E00E94330A892F8F5FDF91CF911F9142
:10047000089583B1CBCF2F923F924F925F927F929C
:100480008F929F92AF92BF92CF92DF92EF92FF92A4
:100490000F931F93DF93CF9300D000D0CDB7DEB77B
:1004A0009C838B837A836983880F991F880F991F98
:1004B0002B813C81820F931F882477241C014424C4
:1004C00037FC4094542C86B196B126B136B196B023
:1004D00092708170890F2470280F3870320F80E17C
:1004E0009822930E81E090E00E940F0481E291E057
:1004F0000E94FB0386B10E94190480E061E00E9423
:10050000070488E291E00E94FB03872D0E941104FA
:10051000C201B1010E948C075B016C0120E030E454
:100520004CE955E40E9402067B018C0120E030E09A
:1005300040E85FE30E945C0788231CF461E070E000
:1005400023C0C801B70120E03FEF4FE757E40E9406
:10055000FC061816ACF4C601B50120E030E040E21C
:1005600051E40E9402060E942C0406C084EF91E030
:100570000197F1F76150704061157105B9F707C037
:10058000C801B7010E942C04CB010197F1F7992013
:1005900051F4882019F00E94160173948B810E94F7
:1005A0005201882407C0E3E0E91520F40E943501D8
:1005B00088241FC026B186B190E08071907030E031
:1005C00028703070822B932B892B19F00E940D011B
:1005D0000EC026B186B190E08270907030E021703C
:1005E0003070822B932B892B21F00E9404018824E8
:1005F000839486B186B186B1872D90E029813A81B6
:100600008217930709F05FCF0F900F900F900F9014
:10061000CF91DF911F910F91FF90EF90DF90CF90DE
:10062000BF90AF909F908F907F905F904F903F9042
:100630002F9008951F930E94BE038CE090E00E94CB
:100640000F0481E090E00E940F0487B18FEF87B91B
:1006500098B188B988E893E10197F1F787B117B8A5
:100660000E949601182F0E94E201682F812F90E0CE
:1006700070E00E943B0281E090E00E940F048EE255
:1006800091E00E94FB0380E090E01F910895219A81
:10069000249A259A579A089521982498259857982E
:1006A00008955C9A86E08A95F1F700C089B1881FA9
:1006B0008827881F880F880F880F1D9984601C99D0
:1006C0008260199981605C98089580FF0CC0299A16
:1006D00081FF0BC02C9A82FF0AC02D9A83FF09C0AC
:1006E0005F9A0C9451032998F3CF2C98F4CF2D984E
:1006F000F5CF5F98F6CFCF93DF935A980E944C03C3
:10070000289A0E945103C82F0E94510390E1C99F6B
:10071000E00111248C2B87FDF0CFDF91CF9108955C
:10072000CF93C82F0E947B0328985A980E944703B2
:100730008C2F82958F700E9465038C2F8F700E9482
:1007400065030E944C038FE0CF910C946503CF9317
:10075000C82F0E947B0328985A9A0E9447038C2F27
:1007600082958F700E9465038C2F8F700E946503A5
:100770000E944C038FE0CF910C94650328985A98FF
:100780005C98529A209A549A0E9447032FE58AEE69
:1007900090E0215080409040E1F700C0000083E0ED
:1007A0000E9465038FE295E70197F1F700C0000012
:1007B00083E00E9465038FE097E20197F1F700C0A4
:1007C000000083E00E9465038FE097E20197F1F754
:1007D00000C0000082E00E9465030E947B0388E263
:1007E0000E94900388E00E94900381E00E949003A1
:1007F00086E00C949003CF93DF93EC0189918111F3
:1008000003C0DF91CF9108950E94A703F7CF90E432
:10081000699FB0011124862B80680C9490030C947E
:1008200090038F708A3018F4805D0C94A703895C64
:10083000FCCFCF93C82F82958F700E9411048C2F0C
:10084000CF910C941104CF93C82F892F0E941904C3
:100850008C2FCF910C941904EF92FF920F931F935A
:100860007B018C0120E030E040E05FE40E942C0737
:1008700088238CF0C801B70120E030E040E05FE45D
:100880000E94A4050E94EA079B01AC012050304061
:100890004040504806C0C801B7010E94EA079B01CA
:1008A000AC01B901CA011F910F91FF90EF9008951B
:1008B000A0E0B0E0EEE5F4E00C94660ADC012B0168
:1008C000FA019C91923008F439C1EB0188818230A1
:1008D00008F433C1943069F4843009F02FC11196C3
:1008E0009C9111978981981709F428C1A4E3B1E07C
:1008F00025C1843009F421C18230A9F4923009F075
:100900001DC19A01AD0188E0EA010990AE01E9013B
:1009100009929E018150C1F7E201898111969C9153
:100920008923818308C1923009F407C112962D9062
:100930003C901397EB018A819B811496AD90BD90FA
:10094000CD90DC901797EC80FD800E811F81910186
:10095000281B390BB90137FF04C066277727621BB4
:10096000730B603271050CF061C0121613066CF542
:1009700037014801062E04C09694879477946794B3
:100980000A94D2F721E030E040E050E004C0220FAA
:10099000331F441F551F6A95D2F721503040404005
:1009A00050402E213F21402351232115310541057F
:1009B000510521F021E030E040E050E079018A016A
:1009C000E628F728082919293CC0232BD1F1260E47
:1009D000371E35014601062E04C0969487947794FD
:1009E00067940A94D2F721E030E040E050E004C080
:1009F000220F331F441F551F6A95D2F721503040F4
:100A0000404050402A213B214C215D2121153105D8
:100A10004105510521F021E030E040E050E059016E
:100A20006A01A628B728C828D9280BC082159305C3
:100A30002CF01C01AA24BB24650103C0EE24FF2472
:100A4000870111969C91D20111968C91981709F407
:100A500045C0992339F0A80197012A193B094C098F
:100A60005D0906C0A60195012E193F09400B510BE7
:100A700057FD08C011823382228224833583468346
:100A800057831DC081E08183338222828827992782
:100A9000DC01821B930BA40BB50B84839583A68387
:100AA000B7830DC0220F331F441F551F2483358386
:100AB0004683578382819381019793838283248124
:100AC000358146815781DA01C9010197A109B10930
:100AD0008F5F9F4FAF4FBF4328F30BC0918333828B
:100AE0002282EA0CFB1C0C1D1D1DE482F58206838C
:100AF000178383E08083248135814681578157FFA6
:100B00001AC0C901AA2797FDA095BA2F81709070CD
:100B1000A070B0705695479537952795822B932BEB
:100B2000A42BB52B84839583A683B783828193817D
:100B3000019693838283DF0101C0D201CD01CDB73D
:100B4000DEB7E2E10C94820AA0E2B0E0EAEAF5E066
:100B50000C94720A69837A838B839C832D833E83F2
:100B60004F835887E9E0EE2EF12CEC0EFD1ECE01EE
:100B70000196B7010E9462098E010F5E1F4FCE01E0
:100B80000596B8010E9462098A8991E089278A8BBB
:100B9000C701B801AE01475E5F4F0E9458040E9432
:100BA0008D08A096E6E00C948E0AA0E2B0E0EBED92
:100BB000F5E00C94720A69837A838B839C832D837E
:100BC0003E834F835887F9E0EF2EF12CEC0EFD1E8B
:100BD000CE010196B7010E9462098E010F5E1F4F80
:100BE000CE010596B8010E946209C701B801AE01A5
:100BF000475E5F4F0E9458040E948D08A096E6E071
:100C00000C948E0AA0E2B0E0E8E0F6E00C94660AEC
:100C100069837A838B839C832D833E834F8358879C
:100C2000CE010196BE01675F7F4F0E946209CE012F
:100C30000596BE016F5E7F4F0E94620999859230D2
:100C400088F089898230C8F0943019F4823051F4E8
:100C500004C0843029F4923081F484E391E0C6C06A
:100C6000923049F420E09A858A89981321E02A87F6
:100C7000CE010996BBC0823049F420E09A858A896A
:100C8000981321E02A8BCE014196B0C02D843E847A
:100C90004F8458886D887E888F88988CEE24FF2436
:100CA0008701AA24BB24650140E050E060E070E0C9
:100CB000E0E0F0E0C10181709070892BE9F0E60C72
:100CC000F71C081D191D9A01AB012A0D3B1D4C1D77
:100CD0005D1D80E090E0A0E0B0E0E614F7040805B8
:100CE000190520F481E090E0A0E0B0E0BA01A9018C
:100CF000480F591F6A1F7B1FAA0CBB1CCC1CDD1C94
:100D000097FE08C081E090E0A0E0B0E0A82AB92AF0
:100D1000CA2ADB2A3196E032F10549F0660C771CCD
:100D2000881C991C5694479437942794C3CFFA850E
:100D3000EA892B893C898B859C85280F391F2E5F7A
:100D40003F4F17C0CA0181709070892B61F01695D2
:100D50000795F794E79480E090E0A0E0B0E8E82AF7
:100D6000F92A0A2B1B2B76956795579547952F5F88
:100D70003F4F77FDE7CF0CC0440F551F661F771F0D
:100D800017FD4160EE0CFF1C001F111F2150304069
:100D9000403090E0590790E0690790E4790760F3EC
:100DA0002B8F3C8FDB01CA018F779070A070B070E1
:100DB00080349105A105B10561F447FD0AC0E11435
:100DC000F1040105110529F0405C5F4F6F4F7F4F23
:100DD00040781A8EFE1711F081E08A8F4D8F5E8F5A
:100DE0006F8F78A383E0898FCE0149960E948D088A
:100DF000A096E2E10C94820AA8E1B0E0E2E0F7E01C
:100E00000C94720A69837A838B839C832D833E833F
:100E10004F83588789E0E82EF12CEC0EFD1ECE01A1
:100E20000196B7010E9462098E010F5E1F4FCE012D
:100E30000596B8010E9462098985823040F089894F
:100E4000823028F0C701B8010E94DA0901C08FEF93
:100E50006896E6E00C948E0AA8E1B0E0E2E3F7E0E1
:100E60000C94720A69837A838B839C832D833E83DF
:100E70004F83588789E0E82EF12CEC0EFD1ECE0141
:100E80000196B7010E9462098E010F5E1F4FCE01CD
:100E90000596B8010E9462098985823040F08989EF
:100EA000823028F0C701B8010E94DA0901C08FEF33
:100EB0006896E6E00C948E0AA8E1B0E0E2E6F7E07E
:100EC0000C94720A69837A838B839C832D833E837F
:100ED0004F83588789E0E82EF12CEC0EFD1ECE01E1
:100EE0000196B7010E9462098E010F5E1F4FCE016D
:100EF0000596B8010E9462098985823040F089898F
:100F0000823028F0C701B8010E94DA0901C081E0EF
:100F10006896E6E00C948E0AA8E0B0E0E2E9F7E01B
:100F20000C946F0A9B01AC0183E08983DA01C9014B
:100F30008827B7FD83959927AA27BB27B82E2115A7
:100F400031054105510519F482E089833AC08823AF
:100F5000A9F0203080E0380780E0480780E8580793
:100F600029F460E070E080E09FEC30C0EE24FF24C4
:100F70008701E21AF30A040B150B02C079018A01FA
:100F80008EE1C82ED12CDC82CB82ED82FE820F83D3
:100F90001887C801B7010E943E0801971816190664
:100FA00084F4082E04C0EE0CFF1C001F111F0A94CD
:100FB000D2F7ED82FE820F831887C81AD90ADC8225
:100FC000CB82BA82CE0101960E948D082896E9E074
:100FD0000C948B0AACE0B0E0E0EFF7E00C94760AFA
:100FE00069837A838B839C83CE010196BE016B5FFC
:100FF0007F4F0E9462098D81823061F1823050F111
:10100000843021F48E81882351F12EC02F813885C0
:1010100037FD20C06E812F3131051CF06623F9F0B9
:1010200023C08EE190E0821B930B29853A854B8586
:101030005C8504C056954795379527958A95D2F7D4
:101040006623B1F050954095309521953F4F4F4F15
:101050005F4F0EC020E030E040E050E009C02FEFCD
:101060003FEF4FEF5FE704C020E030E040E050E8A2
:10107000B901CA012C96E2E00C94920AEF92FF9219
:101080000F931F937B018C0180E0E81680E0F80647
:1010900081E0080780E0180788F48FEFE816F10474
:1010A0000105110531F028F088E090E0A0E0B0E003
:1010B00017C080E090E0A0E0B0E012C080E0E81649
:1010C00080E0F80680E0080781E0180728F088E152
:1010D00090E0A0E0B0E004C080E190E0A0E0B0E0EB
:1010E00020E230E040E050E0281B390B4A0B5B0B5C
:1010F00004C016950795F794E7948A95D2F7F701FF
:10110000E45CFE4F8081281B310941095109C90166
:101110001F910F91FF90EF900895DF92EF92FF9251
:101120000F931F93FC01E480F58006811781D18025
:101130008081823048F480E090E0A0E1B0E0E82ACD
:10114000F92A0A2B1B2BA5C0843009F49FC08230DA
:1011500021F4EE24FF24870105C0E114F104010508
:10116000110519F4E0E0F0E096C0628173819FEF11
:10117000623879070CF05BC022E83FEF261B370B83
:101180002A3131052CF020E030E040E050E02AC068
:10119000B801A701022E04C076956795579547952B
:1011A0000A94D2F781E090E0A0E0B0E004C0880F9C
:1011B000991FAA1FBB1F2A95D2F70197A109B10950
:1011C0008E219F21A023B1230097A105B10521F015
:1011D00081E090E0A0E0B0E09A01AB01282B392B30
:1011E0004A2B5B2BDA01C9018F779070A070B07029
:1011F00080349105A105B10539F427FF09C0205CB1
:101200003F4F4F4F5F4F04C0215C3F4F4F4F5F4FE9
:10121000E0E0F0E02030A0E03A07A0E04A07A0E4D8
:101220005A0710F0E1E0F0E079018A0127C0603848
:10123000710564F5FB01E158FF4FD801C7018F77B5
:101240009070A070B07080349105A105B10539F49B
:10125000E7FE0DC080E490E0A0E0B0E004C08FE3C2
:1012600090E0A0E0B0E0E80EF91E0A1F1B1F17FF78
:1012700005C016950795F794E794319687E0169583
:101280000795F794E7948A95D1F705C0EE24FF24DB
:101290008701EFEFF0E06E2F679566276795902F37
:1012A0009F77D794DD24D7948E2F8695492F462B90
:1012B000582F5D29B701CA011F910F91FF90EF9040
:1012C000DF900895FC01DB01408151812281622F72
:1012D0006F7770E0221F2227221F9381892F880FAA
:1012E000822B282F30E0991F9927991F11969C93E4
:1012F000119721153105A9F54115510561057105B4
:1013000011F482E037C082E89FEF13969C938E938E
:1013100012979A01AB0167E0220F331F441F551F3C
:101320006A95D1F783E08C930DC0220F331F441FC1
:10133000551F12968D919C911397019713969C932C
:101340008E931297203080E0380780E0480780E4D1
:10135000580758F314962D933D934D935C9317972C
:1013600008952F3F310579F4411551056105710547
:1013700019F484E08C93089564FF03C081E08C939A
:1013800012C01C9210C02F57304013963C932E93DE
:10139000129783E08C9387E0440F551F661F771FD9
:1013A0008A95D1F7706414964D935D936D937C93F9
:1013B000179708951F93DC01FB019C91923008F46C
:1013C00047C08081823008F443C0943051F41196B4
:1013D0001C91843099F58181682F70E0611B71093F
:1013E0003FC0843021F0923031F48230B9F18181F4
:1013F000882389F12DC011961C9111978230F1F04C
:1014000081811817D9F412962D913C9113978281FE
:1014100093818217930794F028173907BCF014962C
:101420008D919D910D90BC91A02D24813581468197
:101430005781281739074A075B0718F4112341F031
:101440000AC082179307A407B50740F4112319F0C7
:1014500061E070E005C06FEF7FEF02C060E070E018
:10146000CB011F910895991B79E004C0991F96172D
:1014700008F0961B881F7A95C9F78095089597FB09
:10148000092E07260AD077FD04D00CD006D0002004
:101490001AF4709561957F4F0895F6F790958195B0
:1014A0009F4F0895AA1BBB1B51E107C0AA1FBB1F7A
:1014B000A617B70710F0A61BB70B881F991F5A95E0
:1014C000A9F780959095BC01CD0108952F923F9288
:1014D0004F925F926F927F928F929F92AF92BF9244
:1014E000CF92DF92EF92FF920F931F93CF93DF93F0
:1014F000CDB7DEB7CA1BDB0B0FB6F894DEBF0FBE4D
:10150000CDBF09942A88398848885F846E847D8499
:101510008C849B84AA84B984C884DF80EE80FD809B
:101520000C811B81AA81B981CE0FD11D0FB6F89411
:0E153000DEBF0FBECDBFED010895F894FFCFD2
:10153E00536C6F77004D656400466173740050699B
:10154E00636B0053706565640042756E6B657273F4
:10155E00005363616E3A200042756E6B3A00434C45
:10156E004541520000000000000000000001020290
:10157E00030303030404040404040404050505051D
:10158E0005050505050505050505050506060606F9
:10159E0006060606060606060606060606060606DD
:1015AE0006060606060606060606060607070707C9
:1015BE0007070707070707070707070707070707AD
:1015CE00070707070707070707070707070707079D
:1015DE00070707070707070707070707070707078D
:1015EE000707070707070707070707070808080879
:1015FE00080808080808080808080808080808085D
:10160E00080808080808080808080808080808084C
:10161E00080808080808080808080808080808083C
:10162E00080808080808080808080808080808082C
:10163E00080808080808080808080808080808081C
:10164E00080808080808080808080808080808080C
:10165E0008080808080808080808080808080808FC
:0C166E0008080808080808080808080810
:00000001FF
